S015000046696E616C5F50726F6A6563742E73726563EF
S113000066C2000085C2000083C2000081C20000F5
S11300107FC200007DC200007BC2000079C20000E4
S113002077C2000075C2000073C2000071C20000F4
S11300306FC200006DC200006BC2000069C2000004
S113004067C2000065C2000063C2000061C2000014
S11300505FC200005DC200005BC2000059C2000024
S113006057C2000055C2000053C2000051C2000034
S11300704FC200004DC200004BC2000049C2000044
S113008047C2000045C2000043C2000041C2000054
S11300903FC200003DC200003BC2000039C2000064
S11300A037C2000035C2000033C2000031C2000074
S11300B02FC200002DC200002BC2000029C2000084
S11300C027C2000025C2000023C2000021C2000094
S11300D01FC200001DC200001BC2000019C20000A4
S11300E017C2000015C2000013C2000011C20000B4
S11300F00FC200000DC200000BC2000009C20000C4
S113010007C2000005C2000003C2000001C20000D3
S1130110FFC10000FDC10000FBC10000F9C10000E7
S1130120F7C10000F5C10000F3C10000F1C10000F7
S1130130EFC10000EDC10000EBC10000E9C1000007
S1130140E7C10000E5C10000E3C10000E1C1000017
S1130150DFC10000DDC10000DBC10000D9C1000027
S1130160D7C10000D5C10000D3C10000D1C1000037
S1130170CFC10000CDC10000CBC10000C9C1000047
S1130180C7C10000C5C10000C3C10000C1C1000057
S1130190BFC10000BDC10000BBC10000B9C1000067
S11301A0B7C10000B5C10000B3C10000B1C1000077
S11301B0AFC10000ADC10000ABC10000A9C1000087
S11301C0A7C10000A5C10000A3C10000A1C1000097
S11301D09FC100009DC100009BC1000099C10000A7
S11301E097C1000095C1000093C1000091C10000B7
S11301F08FC100008DC100008BC10000FF7E3C1840
S1130200000000000000002020202020002050508A
S113021050000000005050F850F850502078A07062
S113022028F020C0C810204098186090A040A890E2
S11302306860204000000000102040404020104032
S1130240201010102040005020F8205000002020E2
S1130250F820200000000000602040000000F800AA
S113026000000000000000606000081020408000D2
S1130270708898A8C888702060202020207070881A
S113028008102040F8F810201008887010305090A2
S1130290F81010F880F008088870304080F08888E2
S11302A070F808102040404070888870888870700A
S11302B088887808106000606000606000006060FA
S11302C000602040081020402010080000F800F8CA
S11302D000008040201020408070880810200020FA
S11302E070880868A8A87070888888F88888F0885A
S11302F088F08888F070888080808870E090888892
S11303008890E0F88080F08080F8F88080E0808039
S11303108070888080988870888888F88888887039
S1130320202020202070381010101090608890A099
S1130330C0A09088808080808080F888D8A8888831
S113034088888888C8A898888870888888888870E9
S1130350F08888F080808070888888A89068F08809
S113036088F0A09088788080700808F0F820202019
S11303702020208888888888887088888888885081
S113038020888888A8A8D888888850205088888899
S1130390885020202020F80810204080F8382020A1
S11303A02020203800804020100800E02020202059
S11303B020E020508800000000000000000000F849
S11303C040201000000000000070087888788080C9
S11303D0B0C88888F0000070808088700808689829
S11303E088887800007088F88070304840E0404089
S11303F040000078887808308080B0C888888820D9
S113040000602020207010003010109060404048A0
S113041050605048602020202020700000D0A8A800
S113042088880000B0C88888880000708888887030
S11304300000F088F08080000068987808080000C8
S1130440B0C8808080000070807008F04040E040B8
S11304504048300000888888986800008888885060
S11304602000008888A8A8500000885020508800E8
S11304700088887808700000F8102040F8102020C8
S11304804020201020202020202020402020102048
S11304902040506C617920596F7572204F776E003F
S11304A0537461697277617920746F20486561764D
S11304B0656E0053696D706C65204265617400530C
S11304C0656C656374206120536F6E6700001124AE
S11304D01FBECFEFCDBFDFE5DEBF00E00CBF10E2F3
S11304E0A0E0B0E2ECEDF0E200E00BBF02C0079048
S11304F00D92A833B107D9F722E2A8E3B0E201C014
S11305001D92AC33B207E1F70E94100D0C946C10ED
S113051077CD9C01ADECBCEC0E94930D969587952C
S11305209695879596958795009769F020E030E039
S1130530E3ECF9E03197F1F700C000002F5F3F4F83
S113054028173907A9F70895E0E4F6E081E08183EC
S113055082E0818384E0818388E0818380E18183F8
S113056008950F931F93CF93DF93C82FC695C69515
S1130570C69590E2C99FE0011124DA5F877001E01B
S113058010E002C0000F111F8A95E2F70F8382E387
S113059090E0BFDF0F83DF91CF911F910F910895FA
S11305A0CF93DF93D72FC82F862FDBDF8D2F9C2F80
S11305B0B0DFDF91CF910895BF92CF92DF92EF9297
S11305C0FF920F931F93CF93DF931F92CDB7DEB7A4
S11305D0E0E0F6E088E0868385830F2EFBE2BF2E01
S11305E0F02DB98280EA99E054D6C12CD12C760141
S11305F000E412E42FE030E043E0BE016F5F7F4F80
S113060080EA99E075D600E616E0FF24F394F80139
S1130610F682B982BE016F5F7F4F80EA99E082D68D
S1130620F801F682E0EAF9E0818185FFFDCF80EAF6
S11306308093A009E0EAF9E0818186FFFDCFE0EA3A
S1130640F9E080E481838081BE016F5F7F4F80EA9F
S113065099E07ED68BE28983BE016F5F7F4F80EA8B
S113066099E060D681E080936606E0EAF9E0818152
S113067085FFFDCF86EA8093A009E0EAF9E0818155
S113068086FFFDCFE0EAF9E080E481838081BE014A
S11306906F5F7F4F80EA99E05BD68BE28983BE016E
S11306A06F5F7F4F80EA99E03DD681E080936606D4
S11306B0E0EAF9E0818185FFFDCF88EC8093A00911
S11306C0E0EAF9E0818186FFFDCFE0EAF9E080E429
S11306D081838081BE016F5F7F4F80EA99E038D6C5
S11306E08BE28983BE016F5F7F4F80EA99E01AD65F
S11306F081E080936606E0EAF9E0818185FFFDCF21
S113070082EA8093A009E0EAF9E0818186FFFDCFC7
S1130710E0EAF9E080E481838081BE016F5F7F4F6E
S113072080EA99E015D68BE28983BE016F5F7F4F23
S113073080EA99E0F7D581E080936606E0EAF9E083
S1130740818185FFFDCF8FE28093A009E0EAF9E083
S1130750818186FFFDCFE0EAF9E080E48183808136
S1130760BE016F5F7F4F80EA99E0F2D58BE2898307
S1130770BE016F5F7F4F80EA99E0D4D581E080931A
S11307806606E0EAF9E0818185FFFDCF88EF80937A
S1130790A009E0EAF9E0818186FFFDCFE0EAF9E013
S11307A080E481838081BE016F5F7F4F80EA99E09E
S11307B0CFD58BE28983BE016F5F7F4F80EA99E0DA
S11307C0B1D581E080936606E0EAF9E0818185FF96
S11307D0FDCF1092A009E0EAF9E0818186FFFDCF08
S11307E0E0EAF9E080E481838081BE016F5F7F4F9E
S11307F080EA99E0ADD58BE28983BE016F5F7F4FBC
S113080080EA99E08FD581E080936606E0EAF9E01A
S1130810818185FFFDCF81E28093A009E0EAF9E0C0
S1130820818186FFFDCFE0EAF9E080E48183808165
S1130830BE016F5F7F4F80EA99E08AD58BE289839E
S1130840BE016F5F7F4F80EA99E06CD581E08093B1
S11308506606E0EAF9E0818185FFFDCF81E88093B7
S1130860A009E0EAF9E0818186FFFDCFE0EAF9E042
S113087080E481838081BE016F5F7F4F80EA99E0CD
S113088067D58BE28983BE016F5F7F4F80EA99E071
S113089049D581E080936606E0EAF9E0818185FF2D
S11308A0FDCF81E28093A009E0EAF9E0818186FF2F
S11308B0FDCFE0EAF9E080E481838081BE016F5FCF
S11308C07F4F80EA99E044D58BE28983BE016F5F54
S11308D07F4F80EA99E026D581E080936606E0EABE
S11308E0F9E0818185FFFDCF8FEA8093A009E0EADA
S11308F0F9E0818186FFFDCFE0EAF9E080E48183BD
S11309008081BE016F5F7F4F80EA99E021D50F900F
S1130910DF91CF911F910F91FF90EF90DF90CF90D7
S1130920BF9008958FEF809370008093710080933F
S11309307200809373008093740080937500809399
S1130940760008959FB7F894E82FF0E0E059FF4F40
S113095060958081682360839FBF08956F927F9222
S11309608F929F92AF92BF92CF92DF92EF92FF92BB
S11309700F931F93CF93DF931F92CDB7DEB78C01F4
S1130980E62EF42ED22EEBD18E2D8F70806BE82EB6
S11309908BE28983BE016F5F7F4F80EA99E0C2D406
S11309A081E080936606E0EAF9E0818185FFFDCF6E
S11309B0E092A009E0EAF9E0918196FFFDCFE0EA38
S11309C0F9E080E481838081BE016F5F7F4F80EA1C
S11309D099E0BED48F2D8F7782958F708061E82E39
S11309E08BE28983BE016F5F7F4F80EA99E09AD4DE
S11309F081E080936606E0EAF9E0918195FFFDCFFE
S1130A00E092A009E0EAF9E0918196FFFDCFE0EAE7
S1130A10F9E080E481838081BE016F5F7F4F80EACB
S1130A2099E096D48F2D8F70F82E8BE28983BE01C6
S1130A306F5F7F4F80EA99E075D481E0809366060A
S1130A40E0EAF9E0918195FFFDCFF092A009E0EA98
S1130A50F9E0918196FFFDCFE0EAF9E080E481833B
S1130A608081BE016F5F7F4F80EA99E071D4780185
S1130A70DA94AD2CB12CEFEFAE1ABE0AA00EB11E63
S1130A800F2EFBE26F2EF02D00EA19E00F2EF0E698
S1130A90CF2EF6E0DF2EF02D9924939468947724DA
S1130AA076F8F70181907F016982BE016F5F7F4F05
S1130AB0C80138D4F6019582F801918195FFFCCFE5
S1130AC08082F801918196FFFCCF71828081F601CA
S1130AD09682BE016F5F7F4FC8013AD4EA14FB04CB
S1130AE001F70F90DF91CF911F910F91FF90EF903D
S1130AF0DF90CF90BF90AF909F908F907F906F903A
S1130B000895FF920F931F93CF93DF931F92CDB756
S1130B10DEB7082FF62E142F36D10F70006B8BE240
S1130B208983BE016F5F7F4F80EA99E0FBD381E048
S1130B3080936606E0EAF9E0918195FFFDCF00938A
S1130B40A009E0EAF9E0818186FFFDCFE0EAF9E05F
S1130B5080E481838081BE016F5F7F4F80EA99E0EA
S1130B60F7D30F2D0F7702950F7000618BE2898305
S1130B70BE016F5F7F4F80EA99E0D4D381E0809318
S1130B806606E0EAF9E0818185FFFDCF0093A009C4
S1130B90E0EAF9E0818186FFFDCFE0EAF9E080E454
S1130BA081838081BE016F5F7F4F80EA99E0D0D35B
S1130BB00F2D0F708BE28983BE016F5F7F4F80EA38
S1130BC099E0B0D381E080936606E0EAF9E08181A0
S1130BD085FFFDCF0093A009E0EAF9E0818186FF5B
S1130BE0FDCFE0EAF9E080E481838081BE016F5F9C
S1130BF07F4F80EA99E0ACD38BE28983BE016F5FBB
S1130C007F4F80EA99E08ED381E080936506E0EA25
S1130C10F9E0818185FFFDCF1093A009E0EAF9E0B6
S1130C20818186FFFDCFE0EAF9E080E48183808161
S1130C3081E080936606BE016F5F7F4F80EA99E092
S1130C4087D30F90DF91CF911F910F91FF9008955B
S1130C500F931F93CF93DF931F92CDB7DEB788E333
S1130C6090E278D0A9DC8BE28983BE016F5F7F4F6D
S1130C7080EA99E057D381E080936606E0EAF9E0E0
S1130C80818185FFFDCF80E48093A009E0EAF9E04B
S1130C90818186FFFDCFE0EAF9E080E481838081F1
S1130CA0BE016F5F7F4F80EA99E052D300E00AC033
S1130CB040E0612F802F25DF1F5F1038C9F70F5FD9
S1130CC0043011F010E0F4CF0F90DF91CF911F9119
S1130CD00F910895FF920F931F93CF93DF9388236F
S1130CE08CF1603278F5D42FC82FF62EF694F69452
S1130CF0F6942F2D30E0319521953109220F331FC1
S1130D00220F331F220F331F260F311D61E070E0C5
S1130D108B0102C0000F111F2A95E2F7682F8F2D57
S1130D2040D0D13021F028F0D23039F007C0802BE8
S1130D3005C0602F6095862301C08027482F6C2F43
S1130D408F2DDFDEDF91CF911F910F91FF900895DA
S1130D5028C0089580933822909339220895DC01A5
S1130D60E42FF0E0AF0180E8689F400D511D11248D
S1130D70E0913822F0913922E40FF51F8D9181938F
S1130D802150E1F7089520E8829FC0011124860FC5
S1130D90911DE0913822F0913922E80FF91F408328
S1130DA0089520E8829FC0011124860F911DE091CF
S1130DB03822F0913922E80FF91F80810895FF92BB
S1130DC00F931F93CF93DF93E42FF0E0E80FF11D0F
S1130DD0E138F1051CF0C0E84C2F481B442309F40A
S1130DE053C0D62FD695D695D695ED2FF0E0F19534
S1130DF0E195F109EE0FFF1FEE0FFF1FEE0FFF1F2E
S1130E00DF01A60FB11DBD01E1E0F0E0DF0102C08A
S1130E10AA0FBB1F6A95E2F7FA2E213021F098F051
S1130E20223019F131C0C42F1FEF180F012F0C0FFE
S1130E30602F8D2F8DDF482F4F29602F8D2F61DE7E
S1130E40C150A1F721C0C42F1FEF180FFA2EF09440
S1130E50012F0C0F602F8D2F7BDF482F4F21602F28
S1130E608D2F4FDEC150A1F70FC0C42F1FEF180FF5
S1130E70012F0C0F602F8D2F6BDF482F4F25602F14
S1130E808D2F3FDEC150A1F7DF91CF911F910F91BC
S1130E90FF900895FF920F931F93CF93DF93222324
S1130EA069F0C22FF42E182FDFEFD60F6D2F6C0FC1
S1130EB0202F4F2D812F83DFC150C1F7DF91CF91B8
S1130EC01F910F91FF900895BF92CF92DF92EF92FE
S1130ED0FF920F931F93CF93DF937C01D62FDC01F6
S1130EE01196CC901197C694C694C694B42EB69419
S1130EF0B694B69412968C91882331F0813009F01F
S1130F0043C0C11024C040C0C11028C03DC0C0E0CF
S1130F10DB2CD00E909FF001919FF00D1124EC0F6B
S1130F20F11DD70113964D915C911497E40FF51FB1
S1130F3044916C2F6D0F8D2DE4DDCF5FF70190810F
S1130F40C91740F30F5F1F4F0C1518F01DC000E0C8
S1130F5010E0D7019C919111DACFF4CF00E010E0BA
S1130F60F70120816B2D600F209FC001219F900D00
S1130F7011240380F481E02D4D2F8E0F9F1FEEDC92
S1130F800F5F1F4F0C1560F3DF91CF911F910F91ED
S1130F90FF90EF90DF90CF90BF900895EF92FF9273
S1130FA00F931F93CF93DF937C01DC0115968C91F3
S1130FB015970BEA809F012D1124D02FD6951696F4
S1130FC08C918D1302C0662349F000E028E140E8CB
S1130FD068E080E05FDF81E080933A22F701D68306
S1130FE000E028E144E068E080E054DFD701159692
S1130FF04C918BEA489F812D11248695982F990F47
S1131000890F481B440F440F440F485F60E080E0A1
S113101090E25ADF80913A228823A9F1CD2FCC0F98
S1131020CD0F0D2F10E00F5F1F4FC801880F991FC0
S1131030080F191F8C2F90E08017910714F5F70102
S11310408481C817F0F4D8E0EC2FF0E0EE0FFF1F16
S1131050D70112968D919C911397E80FF91F25E003
S113106030E24D2F65E080819181E4D0CF5F8C2FF9
S113107090E0801791072CF4D85FF7018481C8179A
S113108018F310923A22DF91CF911F910F91FF90A4
S1131090EF9008950F93CF93DF93EC0100E020E2EB
S11310A040E860E080E0F6DE25E030E240E060E029
S11310B088819981BFD061E0CE0170DFDF91CF914B
S11310C00F9108956D3059F118F4683059F105C045
S11310D0FC016632B1F0683211F08FEF089525817A
S11310E0422F50E0848190E001974817590711F48A
S11310F0158202C02F5F258360E0CF014FDF8FEFA1
S113110008958581882319F08150858303C08481E3
S11311108150858360E0CF0141DF8FEF0895FC01AA
S1131120858108958EEF0895AF92BF92CF92DF929A
S1131130EF92FF920F931F93CF93DF93C82FE62E66
S1131140B42E690100E0F901248143816B2D8E2DB9
S1131150A1DEF6018081811139C08381282F269573
S113116026952695877009F02F5FF601A4802A9DA5
S1131170900111248C2F90E04581841B9109289FB4
S1131180A001299F500D389F500D11240181128117
S1131190040F151FF601F380FF20A1F0D0E0C0E09A
S11311A08C2F8E0D9C2F977021F4F801D4910F5F32
S11311B01F4FDD231CF441E06B2D8CDDDD0FCF5F71
S11311C0CF11EECFB394AA94A110E4CFDF91CF91C5
S11311D01F910F91FF90EF90DF90CF90BF90AF9051
S11311E00895DF92EF92FF920F931F93CF93DF93B3
S11311F0042F7901EC01162FD62E89918A3031F40F
S1131200F70184818F5F080F1D2D09C08D3039F0DF
S11312109701402F612F88DFF7018381180F8881A0
S11312208111EBCFDF91CF911F910F91FF90EF9040
S1131230DF900895DF92EF92FF920F931F93CF9365
S1131240DF93EC01042F7901FC019491892F9923F8
S1131250C1F0162FD62E8A3031F4F70184818F5FC6
S1131260080F1D2D09C08D3039F09701402F612FD3
S11312705BDFF7018381180F2196FE0184918111B0
S1131280EACFDF91CF911F910F91FF90EF90DF9004
S11312900895803A28E0920721F460E183E052CB7C
S11312A00895803B28E0920721F460E283E04ACB72
S11312B00895803A29E0920721F460E184E042CB6A
S11312C00895803B29E0920721F460E284E03ACB60
S11312D00895803A2AE0920721F460E185E032CB58
S11312E00895803A9B4019F460E186E02BCB089581
S11312F00F931F93CF93DF9300D000D0CDB7DEB709
S113130009831A832B833C834D831E82BE016F5F46
S11313107F4F2AD12696CDBFDEBFDF91CF911F919B
S11313200F910895FB018081E82FE695E695E695F7
S113133040E2E49FF0011124FA5F877021E030E07D
S1131340A90102C0440F551F8A95E2F74683089508
S1131350FB018081E82FE695E695E69540E2E49F5F
S1131360F0011124FA5F877021E030E0A90102C086
S1131370440F551F8A95E2F745830895CF93DF9371
S1131380FC01709620E030E0C62FD0E0DE01022E92
S113139002C0B595A7950A94E2F7A0FD50832F5F8C
S11313A03F4F31962830310589F740FF0AC041FF8D
S11313B003C0FC01658302C0FC016683FC016183F8
S11313C002C0FC016283DF91CF91089543E050E0B5
S11313D061E080EE97E0D2DF43E050E062E080EE2F
S11313E097E0CCDF43E050E060E180E696E0C6DFC2
S11313F041E050E460E280E696E0C0DF40E05BE17B
S113140060E280E896E0BADF40E05BE162E080EA17
S113141096E0B4DF40E05BE164E080EA96E0AEDFB2
S113142043E050E062E080E696E0A8DF43E050E06D
S113143068E080E696E0A2DF43E050E068E080EAFE
S113144096E09CDF43E050E061E080E696E096DFC2
S113145043E050E068E080E096E090DF41E050E057
S113146060E180E896E08ADF43E050E062E080E6F5
S113147096E084DF43E050E068E080E696E07EDFBB
S113148040E050E064E080E696E078DF43E050E03E
S113149060E180EA96E072DF40E050E061E080E0E5
S11314A096E06CDF40E050E064E080E096E066DFC8
S11314B040E050E062E080E296E060DF43E050E02C
S11314C068E080E496E05ADF40E050E064E080E4C5
S11314D096E054DF43E050E068E080E696E04EDFBB
S11314E040E050E064E080E696E048DF43E050E00E
S11314F068E080E896E042DF40E050E064E080E8A5
S113150096E03CCF0895CF92DF92EF92FF920F9333
S11315101F93CF93DF93EC01D901C801B695A7952A
S113152097958795481759076A077B0770F46A01EE
S11315307B01CC0CDD1CEE1CFF1CC901B801A7010A
S11315409601CFD22150310902C020E030E0832F30
S11315508F708F832E83DF91CF911F910F91FF9016
S1131560EF90DF90CF900895EF92FF920F931F9327
S1131570CF93DF93EC017B01009709F47BC1803C9E
S1131580910521F460E180E0DDD974C18038914097
S113159021F462E080E0D6D96DC1C11581E0D8079D
S11315A021F461E080E0CED965C1C038E3E0DE0714
S11315B021F461E081E0C6D95DC1C039F3E0DF0701
S11315C021F461E082E0BED955C1C11532E0D307F0
S11315D021F462E081E0B6D94DC1C03482E0D8077D
S11315E021F462E082E0AED945C1C032E3E0DE0717
S11315F021F464E082E0A6D93DC1C115F8E0DF071B
S113160021F461E083E09ED935C1C11539E0D307E7
S113161021F461E084E096D92DC1C1158AE0D80790
S113162021F461E085E08ED925C1C115EBE0DE0728
S113163021F461E086E086D91DC1C034F8E0DF07FB
S113164021F462E083E07ED915C1C03439E0D307C8
S113165021F462E084E076D90DC1C0348AE0D80771
S113166021F462E085E06ED905C1C039E8E0DE0707
S113167021F464E083E066D9FDC0C039F9E0DF07F6
S113168021F464E084E05ED9F5C0C0393AE0D307C0
S113169021F464E085E056D9EDC0C0398BE0D80769
S11316A021F464E086E04ED9E5C0C03CE8E0DE0702
S11316B021F468E083E046D9DDC0C03CF9E0DF07EF
S11316C021F468E084E03ED9D5C0C03A38E0D307BD
S11316D061F460E183E036D9E0EAF8E084818F7E4A
S11316E08483F7012481225043C0C03AF9E0DF0724
S11316F021F460E184E026D9BDC0C03A3AE0D307C2
S113170021F460E185E01ED9B5C0C03A8BE0D8076A
S113171021F460E186E016D9ADC0C03BE8E0DE0705
S113172021F460E283E00ED9A5C0C03BF9E0DF07F5
S113173021F460E284E006D99DC0C03834E0D307C8
S113174021F460E483E0FED895C0C03A84E0D80771
S113175021F460E485E0F6D88DC08C818F7E8C8383
S1131760FB0124812250CE01C03AF8E0DF0731F4B6
S113177080914E0684FD86C011E185C0803B38E02F
S1131780930779F0803AE9E09E0731F430916E06D0
S113179034FD7CC019E110C0803BF9E09F07A9F03B
S11317A001C015E1803A3AE0930731F480918E0646
S11317B084FD6EC011E20CC0803A9B4049F48091D4
S11317C0AE0684FD04C019E203C01DE101C01DE2A0
S11317D0E12FE695E695E69530E2E39FF0011124CA
S11317E0FA5F177081E090E0012E02C0880F991F04
S11317F00A94E2F78183223010F040E001C040E413
S1131800DF015096A10FB11D3FB7F8942C912770BA
S11318102C939C91942B9C933FBF85838D81806CEA
S11318208D83F70184818D7F813021F48D818260E5
S11318308D8303C08D818D7F8D83F70185818823FE
S113184021F08D8184608D8303C08D818B7F8D8396
S1131850F701408151816281738100E814E82EE12F
S113186030E0CE0150DE8C8188608C838C81806175
S11318708C8310C08C818F7E8C83F701248122504D
S1131880CE017CCF15E180EA98E086CF1DE194CFAC
S113189015E29ECFDF91CF911F910F91FF90EF90B2
S11318A008952091880625FD0DC020913B2220FD3E
S11318B062C0216020933B222DE0FC01208321E0C3
S11318C0218308952091880625FF0DC020913B2295
S11318D020FF09C02E7F20933B222DE0FC012083B2
S11318E022E0218308952091A80621FD0DC02091B6
S11318F03B2221FD45C0226020933B2226E2FC01CD
S1131900208321E0218308952091A80621FF0DC0A2
S113191020913B2221FF09C02D7F20933B2226E208
S1131920FC01208322E0218308952091A80622FD52
S11319300DC020913B2222FD28C0246020933B222D
S113194028E2FC01208321E0218308952091A80648
S113195022FF0DC020913B2222FF09C02B7F209340
S11319603B2228E2FC01208322E021830895FC012C
S11319701082118208953091880635FDABCFB3CF24
S11319803091A80631FDC8CFD0CF3091A80632FDE2
S1131990E5CFEDCFFF920F931F93CF93DF93CDB796
S11319A0DEB7E297CDBFDEBF182FF62E00E020E2AF
S11319B040E860E080E06EDA25E030E242E061E099
S11319C089E190E20EDCE12FF0E0EE0FFF1FED5E07
S11319D0FF4D25E030E24AE061E0808191812ADC1C
S11319E01F92FF928DE290E29F938F931F9282E366
S11319F08F938E010F5F1F4F1F930F93A3D025E08A
S1131A0030E244E161E0C801ECDBCDBFDEBFE29629
S1131A10CDBFDEBFDF91CF911F910F91FF9008954D
S1131A20CF93DF9300D01F92CDB7DEB70E9492040C
S1131A30CDDC0E94A4020CD980E1809387066894CF
S1131A40EE24E4F80F2EFAE0DF2EF02D10E00F2E36
S1131A50F1E1FF2EF02D8CE090E21CDBCE0101962B
S1131A6020DF9A819230D1F769818CE090E22ADB01
S1131A708F3FA1F38111EFCF64E6812F8BDF04E662
S1131A80CE0103960EDF9B819D3021F48C81823040
S1131A90A1F4E1CF963241F48C81823071F40E5C72
S1131AA0602F812F77DF09C0983239F48C8182301E
S1131AB021F40253602F812F6DDF6E2D7D2D812F38
S1131AC00E94D0022FE78AE196E0215080409040A6
S1131AD0E1F700C000006F2D7D2D812F0E94D00200
S1131AE0CFCFA1E21A2EAA1BBB1BFD010DC0AA1F5A
S1131AF0BB1FEE1FFF1FA217B307E407F50720F073
S1131B00A21BB30BE40BF50B661F771F881F991FED
S1131B101A9469F760957095809590959B01AC0136
S1131B20BD01CF010895A29FB001B39FC001A39F3F
S1131B30700D811D1124911DB29F700D811D112402
S1131B40911D08950F931F93CF93DF93CDB7DEB705
S1131B502E97CDBFDEBF0E891F89888D998D26E013
S1131B602C8309831A8397FF02C080E090E80197D1
S1131B708D839E83AE01445E5F4F6A8D7B8DCE0163
S1131B80019616D04D815E8157FD0AC02F8138859C
S1131B90421753070CF49A01F801E20FF31F108265
S1131BA02E96CDBFDEBFDF91CF911F910F91089587
S1131BB02F923F924F925F926F927F928F929F9259
S1131BC0AF92BF92CF92DF92EF92FF920F931F9347
S1131BD0CF93DF93CDB7DEB72C97CDBFDEBF7C01AB
S1131BE06B018A01FC0116821782838181FFB0C1D7
S1131BF0CE0101964C01F7019381F60193FD859185
S1131C0093FF81916F01882309F49EC1853239F4D1
S1131C1093FD859193FF81916F01853221F4B70182
S1131C2090E0C4D1E8CF512C312C20E02032A0F434
S1131C308B3269F030F4803259F0833269F42061D8
S1131C402CC08D3239F0803339F4216026C02260F3
S1131C50246023C0286021C027FD27C030ED380F41
S1131C603A3078F426FF06C0FAE05F9E300D112466
S1131C70532E13C08AE0389E300D1124332E206277
S1131C800CC08E3221F426FD5FC1206406C08C3660
S1131C9011F4206802C0883641F4F60193FD859161
S1131CA093FF81916F018111C1CF982F9F7D95542E
S1131CB0933028F40C5F1F4FFFE3F9830DC0833684
S1131CC031F0833771F0833509F057C021C0F80132
S1131CD0808189830E5F1F4F44244394512C540107
S1131CE014C03801F2E06F0E711CF801A080B180BD
S1131CF026FF03C0652D70E002C06FEF7FEFC501C2
S1131D002C8749D12C0183012C852F77222E16C0D4
S1131D103801F2E06F0E711CF801A080B18026FF3B
S1131D2003C0652D70E002C06FEF7FEFC5012C8703
S1131D3027D12C012C852068222E830123FC19C075
S1131D40832D90E048165906A0F4B70180E290E094
S1131D502DD13A94F5CFF50127FC859127FE819189
S1131D605F01B70190E022D131103A94F1E04F1AAB
S1131D7051084114510479F7DEC0843611F08936D4
S1131D8031F5F80127FF07C0608171818281938159
S1131D900C5F1F4F08C060817181072E000C880BF7
S1131DA0990B0E5F1F4F2F76722E97FF09C09095E7
S1131DB08095709561957F4F8F4F9F4F2068722E4D
S1131DC02AE030E0A4012AD1A82EA81843C0853700
S1131DD029F42F7EB22E2AE030E025C0F22FF97FBD
S1131DE0BF2E8F36C1F018F4883579F0ADC0803736
S1131DF019F0883721F0A8C02F2F2061B22EB4FE2D
S1131E000DC08B2D8460B82E09C024FF0AC09F2FFB
S1131E109660B92E06C028E030E005C020E130E02D
S1131E2002C020E132E0F801B7FE07C06081718191
S1131E30828193810C5F1F4F06C06081718180E0B5
S1131E4090E00E5F1F4FA401E9D0A82EA818FB2D27
S1131E50FF777F2E76FE0BC0372D3E7FA51450F4FE
S1131E6074FE0AC072FC08C0372D3E7E05C0BA2C31
S1131E70372D03C0BA2C01C0B52C34FF0DC0FE01B0
S1131E80EA0DF11D8081803311F4397E09C032FFDF
S1131E9006C0B394B39404C0832F867809F0B39436
S1131EA033FD12C030FF06C05A2CB31418F4530C7F
S1131EB05B18B32CB31460F4B70180E290E03C8764
S1131EC075D0B3943C85F6CFB31410F43B1801C01D
S1131ED0312C34FF11C0B70180E390E03C8766D019
S1131EE03C8532FF16C031FD03C088E790E002C094
S1131EF088E590E0B7010CC0832F867851F031FF5C
S1131F0002C08BE201C080E237FD8DE2B70190E0B0
S1131F104DD0A51430F4B70180E390E047D05A9433
S1131F20F8CFAA94F401EA0DF11D8081B70190E085
S1131F303DD0A110F6CF332009F45DCEB70180E285
S1131F4090E034D03A94F7CFF7018681978102C0AC
S1131F508FEF9FEF2C96CDBFDEBFDF91CF911F9106
S1131F600F91FF90EF90DF90CF90BF90AF909F9034
S1131F708F907F906F905F904F903F902F90089537
S1131F80FC010590615070400110D8F78095909540
S1131F908E0F9F1F0895FC01615070400190011045
S1131FA0D8F7809590958E0F9F1F08950F931F93D8
S1131FB0CF93DF93FB01238121FD03C08FEF9FEFBC
S1131FC028C022FF16C046815781248135814217DB
S1131FD0530744F4A081B1819D012F5F3F4F2083BB
S1131FE031838C93268137812F5F3F4F268337833C
S1131FF010C0EB01092F182F0084F185E02D1995ED
S1132000892BE1F68E819F8101968E839F83812F98
S1132010902FDF91CF911F910F910895FA01AA2774
S1132020283051F1203181F1E8946F936E7F6E5F17
S11320307F4F8F4F9F4FAF4FB1E03ED0B4E03CD0C5
S1132040670F781F891F9A1FA11D680F791F8A1FA8
S1132050911DA11D6A0F711D811D911DA11D20D00F
S113206009F468943F912AE0269F11243019305DC9
S11320703193DEF6CF010895462F4770405D4193BA
S1132080B3E00FD0C9F7F6CF462F4F70405D4A3307
S113209018F0495D31FD4052419302D0A9F7EACFCF
S11320A0B4E0A6959795879577956795BA95C9F7FE
S11320B000976105710508959B01AC010A2E0694F1
S11320C05795479537952795BA95C9F7620F731FAA
S10F20D0841F951FA01D0895F894FFCFF5
S11320DC040801FC010000020607207DBF04132044
S11320EC030000B304A004920443757272656E7409
S11320FC6C7920506C6179696E673A200054656D77
S10B210C706F3A202564000005
S9030000FC
