:1000000070C200008FC200008DC200008BC20000D1
:1000100089C2000087C2000085C2000083C20000C0
:1000200081C200007FC200007DC200007BC20000D0
:1000300079C2000077C2000075C2000073C20000E0
:1000400071C200006FC200006DC200006BC20000F0
:1000500069C2000067C2000065C2000063C2000000
:1000600061C200005FC200005DC200005BC2000010
:1000700059C2000057C2000055C2000053C2000020
:1000800051C200004FC200004DC200004BC2000030
:1000900049C2000047C2000045C2000043C2000040
:1000A00041C200003FC200003DC200003BC2000050
:1000B00039C2000037C2000035C2000033C2000060
:1000C00031C200002FC200002DC200002BC2000070
:1000D00029C2000027C2000025C2000023C2000080
:1000E00021C200001FC200001DC200001BC2000090
:1000F00019C2000017C2000015C2000013C20000A0
:1001000011C200000FC200000DC200000BC20000AF
:1001100009C2000007C2000005C2000003C20000BF
:1001200001C20000FFC10000FDC10000FBC10000D2
:10013000F9C10000F7C10000F5C10000F3C10000E3
:10014000F1C10000EFC10000EDC10000EBC10000F3
:10015000E9C10000E7C10000E5C10000E3C1000003
:10016000E1C10000DFC10000DDC10000DBC1000013
:10017000D9C10000D7C10000D5C10000D3C1000023
:10018000D1C10000CFC10000CDC10000CBC1000033
:10019000C9C10000C7C10000C5C10000C3C1000043
:1001A000C1C10000BFC10000BDC10000BBC1000053
:1001B000B9C10000B7C10000B5C10000B3C1000063
:1001C000B1C10000AFC10000ADC10000ABC1000073
:1001D000A9C10000A7C10000A5C10000A3C1000083
:1001E000A1C100009FC100009DC100009BC1000093
:1001F00099C1000097C1000095C10000A40FFB0F3A
:10020000F70FF30FEF0FEB0FE70FFF7E3C18000027
:10021000000000000020202020200020505050002E
:100220000000005050F850F850502078A07028F08E
:1002300020C0C810204098186090A040A890686026
:1002400020400000000010204040402010402010BE
:1002500010102040005020F8205000002020F820EE
:10026000200000000000602040000000F8000000B6
:1002700000000000006060000810204080007088CE
:1002800098A8C888702060202020207070880810EE
:100290002040F8F810201008887010305090F810A6
:1002A00010F880F008088870304080F0888870F876
:1002B0000810204040407088887088887070888856
:1002C000780810600060600060600000606000609E
:1002D0002040081020402010080000F800F800001E
:1002E00080402010204080708808102000207088F6
:1002F0000868A8A87070888888F88888F08888F0CE
:100300008888F070888080808870E09088888890E5
:10031000E0F88080F08080F8F88080E08080807055
:10032000888080988870888888F8888888702020DD
:1003300020202070381010101090608890A0C0A06D
:100340009088808080808080F888D8A88888888875
:100350008888C8A898888870888888888870F08875
:1003600088F080808070888888A89068F08888F0FD
:10037000A09088788080700808F0F8202020202045
:10038000208888888888887088888888885020880D
:100390008888A8A8D888888850205088888888505D
:1003A00020202020F80810204080F838202020202D
:1003B000203800804020100800E02020202020E08D
:1003C00020508800000000000000000000F84020DD
:1003D0001000000000000070087888788080B0C8A5
:1003E0008888F00000708080887008086898888885
:1003F0007800007088F88070304840E0404040004D
:100400000078887808308080B0C8888888200060AC
:100410002020207010003010109060404048506044
:100420005048602020202020700000D0A8A8888894
:100430000000B0C888888800007088888870000034
:10044000F088F08080000068987808080000B0C844
:10045000808080000070807008F04040E04040489C
:1004600030000088888898680000888888502000BC
:10047000008888A8A8500000885020508800008874
:10048000887808700000F8102040F81020204020E4
:10049000201020202020202020402020102020403C
:1004A000506C617920596F7572204F776E004D69DD
:1004B0007365726C6F75005374616972776179202E
:1004C000746F2048656176656E004172706567677C
:1004D000696F0053656C656374206120536F6E67AC
:1004E000000011241FBECFEFCDBFDFE5DEBF00E06F
:1004F0000CBF10E2A0E0B0E2E4E7F0E200E00BBFE6
:1005000002C007900D92A036B107D9F722E2A0E60B
:10051000B0E201C01D92A436B207E1F70E94890F34
:100520000C9438106DCD9C01ADECBCEC0E942910F0
:10053000969587959695879596958795009769F0F6
:1005400020E030E0E3ECF9E03197F1F700C0000083
:100550002F5F3F4F28173907A9F70895E0E2F6E02B
:1005600081E0818382E0818384E08183E0E0F6E0C2
:1005700080E1818380E2818380E4818308950F9309
:100580001F93CF93DF93C82FC695C695C69590E26B
:10059000C99FE0011124DA5F877001E010E002C01A
:1005A000000F111F8A95E2F70F8382E390E0BBDF13
:1005B0000F83DF91CF911F910F910895CF93DF9318
:1005C000D72FC82F862FDBDF8D2F9C2FACDFDF913D
:1005D000CF9108950F931F93CF93DF93611571050A
:1005E00081F0EC018B01000F111F600F711F8C0156
:1005F000060F171F699179918991E0DFC017D10724
:10060000C9F7DF91CF911F910F910895BF92CF92BB
:10061000DF92EF92FF920F931F93CF93DF931F927E
:10062000CDB7DEB7E0E0F6E088E0868385830F2E65
:10063000FBE2BF2EF02DB98280EA99E054D6C12C9E
:10064000D12C760100E412E42FE030E043E0BE015B
:100650006F5F7F4F80EA99E075D600E616E0FF24D1
:10066000F394F801F682B982BE016F5F7F4F80EA92
:1006700099E082D6F801F682E0EAF9E0818185FF0F
:10068000FDCF80EA8093A009E0EAF9E0818186FF4E
:10069000FDCFE0EAF9E080E481838081BE016F5FF5
:1006A0007F4F80EA99E07ED68BE28983BE016F5F3F
:1006B0007F4F80EA99E060D681E080936606E0EAA9
:1006C000F9E0818185FFFDCF86EA8093A009E0EA09
:1006D000F9E0818186FFFDCFE0EAF9E080E48183E3
:1006E0008081BE016F5F7F4F80EA99E05BD68BE22D
:1006F0008983BE016F5F7F4F80EA99E03DD681E03C
:1007000080936606E0EAF9E0818185FFFDCF88EC01
:100710008093A009E0EAF9E0818186FFFDCFE0EA5D
:10072000F9E080E481838081BE016F5F7F4F80EAC2
:1007300099E038D68BE28983BE016F5F7F4F80EAF4
:1007400099E01AD681E080936606E0EAF9E08181BB
:1007500085FFFDCF82EA8093A009E0EAF9E081817C
:1007600086FFFDCFE0EAF9E080E481838081BE016D
:100770006F5F7F4F80EA99E015D68BE28983BE01D7
:100780006F5F7F4F80EA99E0F7D581E0809366063E
:10079000E0EAF9E0818185FFFDCF8FE28093A00937
:1007A000E0EAF9E0818186FFFDCFE0EAF9E080E44C
:1007B00081838081BE016F5F7F4F80EA99E0F2D52F
:1007C0008BE28983BE016F5F7F4F80EA99E0D4D5C9
:1007D00081E080936606E0EAF9E0818185FFFDCF44
:1007E00088EF8093A009E0EAF9E0818186FFFDCFE0
:1007F000E0EAF9E080E481838081BE016F5F7F4F92
:1008000080EA99E0CFD58BE28983BE016F5F7F4F8D
:1008100080EA99E0B1D581E080936606E0EAF9E0EC
:10082000818185FFFDCF1092A009E0EAF9E0818186
:1008300086FFFDCFE0EAF9E080E481838081BE019C
:100840006F5F7F4F80EA99E0ADD58BE28983BE016F
:100850006F5F7F4F80EA99E08FD581E080936606D5
:10086000E0EAF9E0818185FFFDCF81E28093A00974
:10087000E0EAF9E0818186FFFDCFE0EAF9E080E47B
:1008800081838081BE016F5F7F4F80EA99E08AD5C6
:100890008BE28983BE016F5F7F4F80EA99E06CD560
:1008A00081E080936606E0EAF9E0818185FFFDCF73
:1008B00081E88093A009E0EAF9E0818186FFFDCF1D
:1008C000E0EAF9E080E481838081BE016F5F7F4FC1
:1008D00080EA99E067D58BE28983BE016F5F7F4F25
:1008E00080EA99E049D581E080936606E0EAF9E084
:1008F000818185FFFDCF81E28093A009E0EAF9E0E4
:10090000818186FFFDCFE0EAF9E080E48183808188
:10091000BE016F5F7F4F80EA99E044D58BE2898307
:10092000BE016F5F7F4F80EA99E026D581E080931A
:100930006606E0EAF9E0818185FFFDCF8FEA8093CA
:10094000A009E0EAF9E0818186FFFDCFE0EAF9E065
:1009500080E481838081BE016F5F7F4F80EA99E0F0
:1009600021D50F90DF91CF911F910F91FF90EF90C4
:10097000DF90CF90BF9008958FEF809370008093A9
:100980007100809372008093730080937400809351
:1009900075008093760008959FB7F894E82FF0E0F3
:1009A000E059FF4F60958081682360839FBF089561
:1009B0006F927F928F929F92AF92BF92CF92DF926F
:1009C000EF92FF920F931F93CF93DF931F92CDB7B8
:1009D000DEB78C01E62EF42ED22EEBD18E2D8F7049
:1009E000806BE82E8BE28983BE016F5F7F4F80EAC8
:1009F00099E0C2D481E080936606E0EAF9E0818163
:100A000085FFFDCFE092A009E0EAF9E0918196FF31
:100A1000FDCFE0EAF9E080E481838081BE016F5F71
:100A20007F4F80EA99E0BED48F2D8F7782958F70AB
:100A30008061E82E8BE28983BE016F5F7F4F80EA81
:100A400099E09AD481E080936606E0EAF9E091812A
:100A500095FFFDCFE092A009E0EAF9E0918196FFD1
:100A6000FDCFE0EAF9E080E481838081BE016F5F21
:100A70007F4F80EA99E096D48F2D8F70F82E8BE20D
:100A80008983BE016F5F7F4F80EA99E075D481E072
:100A900080936606E0EAF9E0918195FFFDCFF09240
:100AA000A009E0EAF9E0918196FFFDCFE0EAF9E0E4
:100AB00080E481838081BE016F5F7F4F80EA99E08F
:100AC00071D47801DA94AD2CB12CEFEFAE1ABE0AD6
:100AD000A00EB11E0F2EFBE26F2EF02D00EA19E0E2
:100AE0000F2EF0E6CF2EF6E0DF2EF02D9924939412
:100AF0006894772476F8F70181907F016982BE01BE
:100B00006F5F7F4FC80138D4F6019582F80191815B
:100B100095FFFCCF8082F801918196FFFCCF718216
:100B20008081F6019682BE016F5F7F4FC8013AD483
:100B3000EA14FB0401F70F90DF91CF911F910F9101
:100B4000FF90EF90DF90CF90BF90AF909F908F90ED
:100B50007F906F900895FF920F931F93CF93DF9331
:100B60001F92CDB7DEB7082FF62E142F36D10F7097
:100B7000006B8BE28983BE016F5F7F4F80EA99E053
:100B8000FBD381E080936606E0EAF9E0918195FF6E
:100B9000FDCF0093A009E0EAF9E0818186FFFDCF57
:100BA000E0EAF9E080E481838081BE016F5F7F4FDE
:100BB00080EA99E0F7D30F2D0F7702950F7000614F
:100BC0008BE28983BE016F5F7F4F80EA99E0D4D3C7
:100BD00081E080936606E0EAF9E0818185FFFDCF40
:100BE0000093A009E0EAF9E0818186FFFDCFE0EA09
:100BF000F9E080E481838081BE016F5F7F4F80EAEE
:100C000099E0D0D30F2D0F708BE28983BE016F5F07
:100C10007F4F80EA99E0B0D381E080936606E0EAF6
:100C2000F9E0818185FFFDCF0093A009E0EAF9E0BA
:100C3000818186FFFDCFE0EAF9E080E48183808155
:100C4000BE016F5F7F4F80EA99E0ACD38BE289836E
:100C5000BE016F5F7F4F80EA99E08ED381E0809381
:100C60006506E0EAF9E0818185FFFDCF1093A009D8
:100C7000E0EAF9E0818186FFFDCFE0EAF9E080E477
:100C80008183808181E080936606BE016F5F7F4F24
:100C900080EA99E087D30F90DF91CF911F910F9158
:100CA000FF9008950F931F93CF93DF931F92CDB7BB
:100CB000DEB780E690E278D0A9DC8BE28983BE01C2
:100CC0006F5F7F4F80EA99E057D381E0809366069B
:100CD000E0EAF9E0818185FFFDCF80E48093A009FF
:100CE000E0EAF9E0818186FFFDCFE0EAF9E080E407
:100CF00081838081BE016F5F7F4F80EA99E052D38C
:100D000000E00AC040E0612F802F25DF1F5F103810
:100D1000C9F70F5F043011F010E0F4CF0F90DF91AE
:100D2000CF911F910F910895FF920F931F93CF932F
:100D3000DF9388238CF1603278F5D42FC82FF62EFC
:100D4000F694F694F6942F2D30E0319521953109E3
:100D5000220F331F220F331F220F331F260F311D87
:100D600061E070E08B0102C0000F111F2A95E2F7CD
:100D7000682F8F2D40D0D13021F028F0D23039F0BB
:100D800007C0802B05C0602F6095862301C0802797
:100D9000482F6C2F8F2DDFDEDF91CF911F910F91A8
:100DA000FF90089528C00895809360229093612257
:100DB0000895DC01E42FF0E0AF0180E8689F400D6A
:100DC000511D1124E0916022F0916122E40FF51F82
:100DD0008D9181932150E1F7089520E8829FC00111
:100DE0001124860F911DE0916022F0916122E80F9D
:100DF000F91F4083089520E8829FC0011124860FC7
:100E0000911DE0916022F0916122E80FF91F80812D
:100E10000895FF920F931F93CF93DF93E42FF0E099
:100E2000E80FF11DE138F1051CF0C0E84C2F481B1C
:100E3000442309F453C0D62FD695D695D695ED2FD9
:100E4000F0E0F195E195F109EE0FFF1FEE0FFF1FA6
:100E5000EE0FFF1FDF01A60FB11DBD01E1E0F0E0C5
:100E6000DF0102C0AA0FBB1F6A95E2F7FA2E2130FC
:100E700021F098F0223019F131C0C42F1FEF180F64
:100E8000012F0C0F602F8D2F8DDF482F4F29602FE2
:100E90008D2F61DEC150A1F721C0C42F1FEF180FA5
:100EA000FA2EF094012F0C0F602F8D2F7BDF482F2F
:100EB0004F21602F8D2F4FDEC150A1F70FC0C42FDF
:100EC0001FEF180F012F0C0F602F8D2F6BDF482F96
:100ED0004F25602F8D2F3FDEC150A1F7DF91CF91BD
:100EE0001F910F91FF900895FF920F931F93CF933F
:100EF000DF93222369F0C22FF42E182FDFEFD60FD5
:100F00006D2F6C0F202F4F2D812F83DFC150C1F724
:100F1000DF91CF911F910F91FF900895BF92CF92D3
:100F2000DF92EF92FF920F931F93CF93DF937C0199
:100F3000D62FDC011196CC901197C694C694C69416
:100F4000B42EB694B694B69412968C91882331F050
:100F5000813009F043C0C11024C040C0C11028C076
:100F60003DC0C0E0DB2CD00E909FF001919FF00DB2
:100F70001124EC0FF11DD70113964D915C9114973C
:100F8000E40FF51F44916C2F6D0F8D2DE4DDCF5FC5
:100F9000F7019081C91740F30F5F1F4F0C1518F030
:100FA0001DC000E010E0D7019C919111DACFF4CF81
:100FB00000E010E0F70120816B2D600F209FC00141
:100FC000219F900D11240380F481E02D4D2F8E0F71
:100FD0009F1FEEDC0F5F1F4F0C1560F3DF91CF9169
:100FE0001F910F91FF90EF90DF90CF90BF900895E9
:100FF000EF92FF920F931F93CF93DF937C01DC015D
:1010000015968C9115970BEA809F012D1124D02FF6
:10101000D69516968C918D1302C0662349F000E098
:1010200028E140E868E080E05FDF81E080936222B1
:10103000F701D68300E028E144E068E080E054DF77
:10104000D70115964C918BEA489F812D11248695E6
:10105000982F990F890F481B440F440F440F485F86
:1010600060E089E290E25ADF809162228823A9F150
:10107000CD2FCC0FCD0F0D2F10E00F5F1F4FC801EC
:10108000880F991F080F191F8C2F90E08017910768
:1010900014F5F7018481C817F0F4D8E0EC2FF0E0E4
:1010A000EE0FFF1FD70112968D919C911397E80FB9
:1010B000F91F2EE230E24D2F65E080819181E4D06E
:1010C000CF5F8C2F90E0801791072CF4D85FF70149
:1010D0008481C81718F310926222DF91CF911F917B
:1010E0000F91FF90EF9008950F93CF93DF93EC0152
:1010F00000E020E240E860E080E0F6DE2EE230E250
:1011000040E060E088819981BFD061E0CE0170DF6E
:10111000DF91CF910F9108956D3059F118F4683037
:1011200059F105C0FC016632B1F0683211F08FEF61
:1011300008952581422F50E0848190E0019748175F
:10114000590711F4158202C02F5F258360E0CF019B
:101150004FDF8FEF08958581882319F081508583B3
:1011600003C084818150858360E0CF0141DF8FEF30
:101170000895FC01858108958EEF0895AF92BF9286
:10118000CF92DF92EF92FF920F931F93CF93DF9353
:10119000C82FE62EB42E690100E0F90124814381B5
:1011A0006B2D8E2DA1DEF6018081811139C08381E6
:1011B000282F269526952695877009F02F5FF60132
:1011C000A4802A9D900111248C2F90E04581841BDE
:1011D0009109289FA001299F500D389F500D11247F
:1011E00001811281040F151FF601F380FF20A1F089
:1011F000D0E0C0E08C2F8E0D9C2F977021F4F80169
:10120000D4910F5F1F4FDD231CF441E06B2D8CDD6B
:10121000DD0FCF5FCF11EECFB394AA94A110E4CF2E
:10122000DF91CF911F910F91FF90EF90DF90CF90C2
:10123000BF90AF900895DF92EF92FF920F931F93AC
:10124000CF93DF93042F7901EC01162FD62E8991CD
:101250008A3031F4F70184818F5F080F1D2D09C09A
:101260008D3039F09701402F612F88DFF70183819E
:10127000180F88818111EBCFDF91CF911F910F91D2
:10128000FF90EF90DF900895DF92EF92FF920F931F
:101290001F93CF93DF93EC01042F7901FC0194910C
:1012A000892F9923C1F0162FD62E8A3031F4F701F9
:1012B00084818F5F080F1D2D09C08D3039F0970193
:1012C000402F612F5BDFF7018381180F2196FE010C
:1012D00084918111EACFDF91CF911F910F91FF90FF
:1012E000EF90DF900895803A28E0920721F460E1C2
:1012F00083E052CB0895803B28E0920721F460E21E
:1013000083E04ACB0895803A29E0920721F460E116
:1013100084E042CB0895803B29E0920721F460E20B
:1013200084E03ACB0895803A2AE0920721F460E104
:1013300085E032CB0895803A9B4019F460E186E065
:101340002BCB08950F931F93CF93DF9300D000D042
:10135000CDB7DEB709831A832B833C834D831E826E
:10136000BE016F5F7F4F5ED32696CDBFDEBFDF919C
:10137000CF911F910F910895FB018081E82FE69591
:10138000E695E69540E2E49FF0011124FA5F87704C
:1013900021E030E0A90102C0440F551F8A95E2F711
:1013A00046830895FB018081E82FE695E695E69552
:1013B00040E2E49FF0011124FA5F877021E030E001
:1013C000A90102C0440F551F8A95E2F7458308958D
:1013D000CF93DF93FC01709620E030E0C62FD0E081
:1013E000DE01022E02C0B595A7950A94E2F7A0FD92
:1013F00050832F5F3F4F31962830310589F740FFEA
:101400000AC041FF03C0FC01658302C0FC01668382
:10141000FC01618302C0FC016283DF91CF910895DA
:1014200043E050E061E080EE97E0D2DF43E050E03F
:1014300062E080EE97E0CCDF43E050E060E180E6E0
:1014400096E0C6DF41E050E460E280E696E0C0DF6F
:1014500040E05BE160E280E896E0BADF40E05BE11B
:1014600062E080EA96E0B4DF40E05BE164E080EABD
:1014700096E0AEDF43E050E062E080E696E0A8DF71
:1014800043E050E068E080E696E0A2DF43E050E011
:1014900068E080EA96E09CDF43E050E061E080E6AF
:1014A00096E096DF43E050E068E080E096E090DF71
:1014B00041E050E060E180E896E08ADF43E050E000
:1014C00062E080E696E084DF43E050E068E080E69A
:1014D00096E07EDF40E050E064E080E696E078DF72
:1014E00043E050E060E180EA96E072DF40E050E0E7
:1014F00061E080E096E06CDF40E050E064E080E096
:1015000096E066DF40E050E062E080E296E060DF77
:1015100043E050E068E080E496E05ADF40E050E0CD
:1015200064E080E496E054DF43E050E068E080E669
:1015300096E04EDF40E050E064E080E696E048DF71
:1015400043E050E068E080E896E042DF40E050E0B1
:1015500064E080E896E03CCF0895FC01918195FF1E
:10156000FDCF608380E090E00895FC019181992394
:10157000ECF7808108952F923F924F925F926F9285
:101580007F928F929F92AF92BF92CF92DF92EF9213
:10159000FF920F931F93CF931C012A013B01480137
:1015A0005901D901C801689412F8B695A795979585
:1015B00087951694D1F7B901A801032E36E17695E7
:1015C0006795579547953A95D1F7302DF1012481CC
:1015D00022FD08C0B695A79597958795769567954E
:1015E0005795479584159505A605B70508F4AAC033
:1015F000441655066606770608F4A6C0F1018481F4
:1016000082FD04C0440C551C661C771CC501B40146
:10161000A3019201F4D42F3F31054105510508F48F
:1016200095C0C12CD12C7601CA94C9EF05C02C15E8
:101630003D054E055F0568F0CC0CDD1CEE1CFF1C63
:10164000CD3F14F46894C0F8CF5FC73081F78C2F7A
:1016500054C08C2FCC230CF050C0D301C201880F92
:10166000991FAA1FBB1F880F991FAA1FBB1F880F96
:10167000991FAA1FBB1F85017401E81AF90A0A0BFA
:101680001B0BD801C701CE3FECF42DEF3FEF2C1B15
:101690003109C7FD339504C0880F991FAA1FBB1FCE
:1016A0002A95D2F773016201F694E794D794C79410
:1016B000BC01CD016C0D7D1D8E1D9F1DA3019201EE
:1016C0009ED436C023E02C0F8301720104C0EE0CBF
:1016D000FF1C001F111F2A95D2F7A801970167016F
:1016E0007801F694E794D794C794BC01CD016C0DB2
:1016F0007D1D8E1D9F1D83D41BC08D5FA301920194
:1017000004C0220F331F441F551F8A95D2F7DA01F8
:10171000C901B695A79597958795BC01CD01680D30
:10172000791D8A1D9B1D6BD4215031094109510936
:10173000832F8F70C295C07FC82BF101C78326838A
:1017400081E01CC080E01AC080E018C0D301C20153
:10175000880F991FAA1FBB1F880F991FAA1FBB1FA5
:10176000880F991FAA1FBB1F85017401E81AF90A87
:101770000A0B1B0BD801C701C9EF87CFCF911F916F
:101780000F91FF90EF90DF90CF90BF90AF909F9020
:101790008F907F906F905F904F903F902F90089523
:1017A0000F931F93CF93DF93EC018B01009709F404
:1017B000E6C0803C910521F460E180E0EDD8DFC017
:1017C000C03881E0D80721F462E080E0E5D8D7C0D6
:1017D000C115E1E0DE0721F461E080E0DDD8CFC093
:1017E000C038F3E0DF0721F461E081E0D5D8C7C05D
:1017F000C03983E0D80721F461E082E0CDD8BFC0D2
:10180000C115E2E0DE0721F462E081E0C5D8B7C08F
:10181000C034F2E0DF0721F462E082E0BDD8AFC05F
:10182000C03283E0D80721F464E082E0B5D8A7C0D5
:10183000C115E8E0DE0721F461E083E0ADD89FC088
:10184000C115F9E0DF0721F461E084E0A5D897C075
:10185000C1158AE0D80721F461E085E09DD88FC0EA
:10186000C115EBE0DE0721F461E086E095D887C082
:10187000C034F8E0DF0721F462E083E08DD87FC058
:10188000C03489E0D80721F462E084E085D877C0CD
:10189000C034EAE0DE0721F462E085E07DD86FC065
:1018A000C039F8E0DF0721F464E083E075D867C051
:1018B000C03989E0D80721F464E084E06DD85FC0C6
:1018C000C039EAE0DE0721F464E085E065D857C05E
:1018D000C039FBE0DF0721F464E086E05DD84FC04B
:1018E000C03C88E0D80721F468E083E055D847C0C1
:1018F000C03CE9E0DE0721F468E084E04DD83FC059
:10190000C03AF8E0DF0721F460E183E045D837C052
:10191000C03A89E0D80721F460E184E03DD82FC0C7
:10192000C03AEAE0DE0721F460E185E035D827C05F
:10193000C03AFBE0DF0721F460E186E02DD81FC04C
:10194000C03B88E0D80721F460E283E025D817C0C7
:10195000C03BE9E0DE0721F460E284E01DD80FC05F
:10196000C038F4E0DF0721F460E483E015D807C055
:10197000C03A84E0D80719F460E485E00DD88D8181
:101980008F738D83F80194818581892B96819111C4
:1019900098E0892B8D83F8014081518162817381A8
:1019A00000E814E82EE130E0CE01E5DD9C8198608E
:1019B0009C839C8190619C83DF91CF911F910F91BB
:1019C0000895CF92DF92EF92FF920F931F93CF93E0
:1019D000DF93EC01D901C801B695A7959795879536
:1019E000481759076A077B0770F46A017B01CC0C22
:1019F000DD1CEE1CFF1CC901B801A7019601FFD236
:101A00002150310902C020E030E0832F8F708F8396
:101A10002E83DF91CF911F910F91FF90EF90DF9078
:101A2000CF900895EF92FF920F931F93CF93DF9380
:101A3000EC017B01009709F498C1803C910529F4E1
:101A400060E180E00E94CC0490C18038914029F48C
:101A500062E080E00E94CC0488C1C11581E0D80713
:101A600029F461E080E00E94CC047FC1C038E3E04B
:101A7000DE0729F461E081E00E94CC0476C1C03920
:101A8000F3E0DF0729F461E082E00E94CC046DC13D
:101A9000C11532E0D30729F462E081E00E94CC0452
:101AA00064C1C03482E0D80729F462E082E00E9479
:101AB000CC045BC1C032E3E0DE0729F464E082E0DD
:101AC0000E94CC0452C1C115F8E0DF0729F461E09F
:101AD00083E00E94CC0449C1C11539E0D30729F441
:101AE00061E084E00E94CC0440C1C1158AE0D807BF
:101AF00029F461E085E00E94CC0437C1C115EBE018
:101B0000DE0729F461E086E00E94CC042EC1C034D7
:101B1000F8E0DF0729F462E083E00E94CC0425C1ED
:101B2000C03439E0D30729F462E084E00E94CC0499
:101B30001CC1C0348AE0D80729F462E085E00E9425
:101B4000CC0413C1C039E8E0DE0729F464E083E087
:101B50000E94CC040AC1C039F9E0DF0729F464E02F
:101B600084E00E94CC0401C1C0393AE0D30729F4D3
:101B700064E085E00E94CC04F8C0C0398BE0D8074F
:101B800029F464E086E00E94CC04EFC0C03CE8E0A9
:101B9000DE0729F468E083E00E94CC04E6C0C03C84
:101BA000F9E0DF0729F468E084E00E94CC04DDC09E
:101BB000C03A38E0D30769F460E183E00E94CC04C6
:101BC000E0EAF8E084818F7E8483F701248122504B
:101BD0004AC0C03AF9E0DF0729F460E184E00E94DE
:101BE000CC04C3C0C03A3AE0D30729F460E185E0F1
:101BF0000E94CC04BAC0C03A8BE0D80729F460E157
:101C000086E00E94CC04B1C0C03BE8E0DE0729F4C6
:101C100060E283E00E94CC04A8C0C03BF9E0DF078B
:101C200029F460E284E00E94CC049FC0C03834E014
:101C3000D30729F460E483E00E94CC0496C0C03A44
:101C400084E0D80729F460E485E00E94CC048DC0CC
:101C50008C818F7E8C83FB0124812250CE01C03A7F
:101C6000F8E0DF0731F480914E0684FD86C011E173
:101C700085C0803B38E0930779F0803AE9E09E0721
:101C800031F430916E0634FD7CC019E110C0803B08
:101C9000F9E09F07A9F001C015E1803A3AE0930707
:101CA00031F480918E0684FD6EC011E20CC0803A42
:101CB0009B4049F48091AE0684FD04C019E203C044
:101CC0001DE101C01DE2E12FE695E695E69530E2C3
:101CD000E39FF0011124FA5F177081E090E0012E7C
:101CE00002C0880F991F0A94E2F78183223010F016
:101CF00040E001C040E4DF015096A10FB11D3FB7A5
:101D0000F8942C9127702C939C91942B9C933FBF1B
:101D100085838D81806C8D83F70184818D7F8130F7
:101D200021F48D8182608D8303C08D818D7F8D83B1
:101D3000F7018581882321F08D8184608D8303C024
:101D40008D818B7F8D83F701408151816281738109
:101D500000E814E82EE130E0CE0133DE8C818860AB
:101D60008C838C8180618C8310C08C818F7E8C836E
:101D7000F70124812250CE017CCF15E180EA98E062
:101D800086CF1DE194CF15E29ECFDF91CF911F91B9
:101D90000F91FF90EF9008952091880625FD0DC0CA
:101DA0002091632220FD62C02160209363222DE0F8
:101DB000FC01208321E0218308952091880625FFDE
:101DC0000DC02091632220FF09C02E7F2093632243
:101DD0002DE0FC01208322E0218308952091A806B4
:101DE00021FD0DC02091632221FD45C0226020937A
:101DF000632226E2FC01208321E0218308952091C3
:101E0000A80621FF0DC02091632221FF09C02D7F6C
:101E10002093632226E2FC01208322E0218308959F
:101E20002091A80622FD0DC02091632222FD28C02A
:101E300024602093632228E2FC01208321E0218397
:101E400008952091A80622FF0DC02091632222FF51
:101E500009C02B7F2093632228E2FC01208322E02B
:101E600021830895FC011082118208953091880623
:101E700035FDABCFB3CF3091A80631FDC8CFD0CF61
:101E80003091A80632FDE5CFEDCFEF92FF920F9390
:101E90001F93CF93DF931F921F92CDB7DEB77C01C4
:101EA000062F10E0CE01019677DF99819D3019F45D
:101EB0008A81823029F0B801C7010E94EA02F2CF7C
:101EC0000F900F90DF91CF911F910F91FF90EF90A6
:101ED00008950F93CF93C82F00E020E240E860E020
:101EE00080E002D82EE230E242E061E08BE490E252
:101EF000A2D9EC2FF0E0EE0FFF1FED5BFF4D2EE2BD
:101F000030E24AE061E080819181BED9CF910F91AA
:101F10000895CF93DF931F921F92CDB7DEB70E9433
:101F2000BC047EDA0E94AE020E94520665E370E2B3
:101F300080EA98E035DC80E1809387060F2EF0E0A0
:101F4000EF2EF0E2FF2EF02D8CE390E2CDD8CE0103
:101F5000019622DF8A818230D1F769818CE390E299
:101F6000DBD88F3FA1F3813071F028F0823091F0FF
:101F70008330B9F0E9CF80E0ACDFF701608187E121
:101F800090E283DFE1CF81E0A4DF66E085E090E2CC
:101F90007CDFDACF82E09DDF61E082E090E275DFF6
:101FA000D3CF83E096DF80EA98E0DFDA182F682F3E
:101FB00080EA98E0D2DA812F90E0FC01F097E730D8
:101FC000F10588F78827E250FF4F8F4F3AC088E02D
:101FD0000E94BF02E8CF89E00E94BF02E4CF8AE0FE
:101FE0000E94BF02E0CF84E00E94BF02DCCF85E008
:101FF0000E94BF02D8CF86E00E94BF02D4CFA1E2E8
:102000001A2EAA1BBB1BFD010DC0AA1FBB1FEE1F72
:10201000FF1FA217B307E407F50720F0A21BB30BBD
:10202000E40BF50B661F771F881F991F1A9469F739
:1020300060957095809590959B01AC01BD01CF0195
:102040000895EE0FFF1F881F8BBF0790F691E02DBC
:102050001994A29FB001B39FC001A39F700D811D71
:102060001124911DB29F700D811D1124911D0895A1
:04207000F894FFCF12
:1020740006000664000A0A00062003052003042063
:10208400030A0A00062003082C01092C010A2C016A
:10209400042C01052C01062C010408010A02000E7F
:1020A400020607207D00E10000030000D304432062
:1020B400040000CA04B704AE04A004437572726538
:1020C4006E746C7920506C6179696E673A200000F7
:00000001FF
